:020000040800F2
:10000000B0080020F51E0008CD1E0008CF1E000815
:10001000D11E0008D31E0008D51E000800000000F5
:10002000000000000000000000000000D71E0008D3
:10003000D91E000800000000DB1E0008DD1E0008BD
:100040001D1F0008211F0008251F0008291F000888
:100050002D1F0008311F0008351F0008391F000838
:100060003D1F0008411F0008451F0008491F0008E8
:100070004D1F0008511F0008551F0008591F000898
:100080005D1F0008611F0008651F0008691F000848
:100090006D1F0008711F0008751F0008791F0008F8
:1000A0007D1F0008811F0008851F0008891F0008A8
:1000B0008D1F0008911F0008951F0008991F000858
:1000C0009D1F0008A11F0008A51F0008A91F000808
:1000D000AD1F0008B11F0008B51F0008B91F0008B8
:1000E000BD1F0008C11F0008C51F0008C91F000868
:1000F000CD1F0008D11F0008D51F0008D91F000818
:10010000DD1F0008E11F0008E51F0008E91F0008C7
:10011000ED1F0008F11F0008F51F0008F91F000877
:10012000FD1F000801200008052000080920000824
:100130000D200008112000081520000819200008D3
:100140001D20000821200008252000082920000883
:100150002D20000831200008352000083920000833
:100160003D200008412000084520000849200008E3
:100170004D20000851200008552000085920000893
:100180005D20000861200008652000086920000843
:100190006D200008712000087520000879200008F3
:1001A0007D200008812000088520000889200008A3
:1001B0008D20000891200008952000089920000853
:1001C0009D200008A12000087CB50400012600F055
:1001D000FBFB0500002C01D101205AE0206A4028D9
:1001E00094F84000012801D1022052E0012084F857
:1001F000400094F8410000280AD1002084F8400013
:10020000200000F0E0FB41F28831200000F0B4FA59
:100210002068006830F4F850A168491E50EA0120B7
:1002200021680860A06C00902B0000222021200093
:1002300000F0A4FA0100C9B2002926D121680A6899
:1002400014490A40616852EA0162E1680A43E169BF
:100250000A43216A0A4321680A6021684A680E49F4
:100260000A40216952EA014261690A43A1690A43CD
:1002700021684A602168096851F001012268116013
:1002800000216164012184F84110002184F84010AC
:10029000C0B276BD2FFFFF00FEF8E0FF10B50400EE
:1002A000002C01D101201AE094F84000012801D16E
:1002B000022014E0012084F8400020680068400813
:1002C000400021680860200000F084FB002060648A
:1002D000002084F84100002084F84000002010BD78
:1002E0002DE9F84304000D0016005FF0010800F04E
:1002F0006BFB0700A8690028E8690028286A002825
:1003000094F84000012801D102203DE0012084F84A
:10031000400094F8410001282FD1002060640220A1
:1003200084F8410000963B0000222021200000F0CC
:1003300025FA81464846C0B2002820D10022290073
:10034000200000F044FA686A002812D100963B00B1
:1003500001220221200000F011FA81464846C0B275
:1003600000280CD102202168C860012084F84100D7
:1003700005E0012084F8410001E05FF0020900205F
:1003800084F840004846C0B2BDE8F2832DE9F84346
:1003900005000C001600002700F016FB80462868B8
:1003A00010F1200995F84000012801D102205EE0FB
:1003B000012085F8400095F84100012850D1002027
:1003C0006864002C45D0122085F841002868006937
:1003D000401CE86228680069401CA8626C622868BA
:1003E000406930F0406029684861E86A002815D00B
:1003F0000096434601220421280000F0BFF90700BF
:100400003800C0B2002809D1686A411C69620078CE
:1004100089F80000E86A401EE862E6E73800C0B2EA
:10042000002812D10096434601220221280000F044
:10043000A5F907003800C0B2002806D102202968BB
:10044000C860280000F04CF90700012085F8410041
:1004500008E0686C50F0080068640120070001E0C3
:1004600002200700002085F840003800C0B2BDE837
:10047000F2832DE9FC4705000C001600002700F070
:10048000A3FA80462868D0F81890286810F1200A4E
:1004900095F84000012801D1022063E0012085F891
:1004A000400095F84100012855D100206864002CD7
:1004B0004AD0222085F8410028680069401CA863C2
:1004C00028680069401C68632C632868406930F024
:1004D000406050F08060296848612868C0F8189032
:1004E000A86B002815D0009643460122062128005B
:1004F00000F044F907003800C0B2002809D1286B89
:10050000411C29639AF800100170A86B401EA86373
:10051000E6E73800C0B2002812D100964346012217
:100520000221280000F02AF907003800C0B2002894
:1005300006D102202968C860280000F0D1F8070021
:10054000012085F8410008E0686C50F008006864FC
:100550000120070001E002200700002085F840008C
:100560003800C0B2BDE8F6872DE9FC4704000D0055
:1005700016001F005FF0010800F026FA8146A86906
:100580000028E8690028286A002894F8400001281B
:1005900001D102204CE0012084F8400094F8410091
:1005A00001283ED100206064422084F84100009779
:1005B0004B4600222021200000F0E0F88246504601
:1005C000C0B200282FD13068216888627068216825
:1005D0004862B0682168C8622068016831F440014F
:1005E0003069014351F4800120680160F068A8621D
:1005F0005FF000622900200000F0E9F800974B4608
:1006000001220821200000F0B9F882465046C0B20D
:10061000002808D108202168C860012084F8410022
:1006200001E05FF0020A002084F840005046C0B2AA
:10063000BDE8F6872DE9F84304000D0016005FF0D1
:10064000010800F0C1F90700A8690028E86900283E
:10065000286A002894F84000012801D102203DE0DA
:10066000012084F8400094F8410001282FD1002097
:100670006064822084F84100A06C00903B0000225E
:100680002021200000F07AF881464846C0B20028B8
:100690001FD12068016831F00801706801432068AB
:1006A0000160706808280BD1306821680863102049
:1006B0002168C8602068006850F4801021680860D4
:1006C0005FF040622900200000F081F801E05FF057
:1006D0000209002084F840004846C0B2BDE8F28319
:1006E0007CB50400002500F06FF9060094F8410085
:1006F00080073ED5002084F840002068006840074D
:1007000011D52068006830F0040021680860E06BB3
:1007100000F07EF905002800C0B2002803D0606C0C
:1007200050F0040060642068006850F00200216806
:100730000860A06C0090330001220221200000F02C
:100740001DF805002800C0B200280BD10220216846
:10075000C860A06C0090330000222021200000F02F
:100760000DF805002800C0B2002802D1012084F84D
:1007700041002800C0B276BD816470472DE9F04188
:1007800005000E0090461F00069C286880683042D5
:1007900001D0012000E000204146C0B2C9B2884229
:1007A00012D014F1010FF0D0002C04D000F00CF99D
:1007B000C01B8442E9D2042085F84100686C50F0E7
:1007C00001006864012000E00020BDE8F08110B461
:1007D0004B6A002B06D0B2F1406F03D08B6A5B1ED0
:1007E000046823618B69002B79D00B6A002B3ED003
:1007F0008B680468E361CB69002B20D0CC6A0B6B5B
:100800001C434B6B1C434B6A1C434B6954EA8344A7
:100810000B691C430B6A1C43CB681C43CB691C430C
:100820008B691C430B681C43144303685C61B2F181
:10083000406F00F0C6804B680468A361C1E0CC6AD9
:100840000B6B1C434B6B1C434B6A1C434B6954EAB8
:1008500083440B691C430B6A1C43CB691C438B69A3
:100860001C430B681C43144303685C61A9E0CB691B
:10087000002B1ED0CC6A0B6B1C434B6B1C434B6A8A
:100880001C434B6954EA83440B6A1C43CB681C43EA
:10089000CB691C438B691C430B681C4314430368DE
:1008A0005C61B2F1406F00F08C804B680468A3611A
:1008B00087E0CC6A0B6B1C434B6B1C434B6A1C439D
:1008C0004B6954EA83440B6A1C43CB691C438B6914
:1008D0001C430B681C43144303685C6171E00B6AA2
:1008E000002B39D08B680468E361CB69002B1DD0E5
:1008F000CC6A0B6B1C434B6B1C434B6A1C434B6910
:1009000054EA83440B691C430B6A1C43CB681C43A9
:10091000CB691C438B691C43144303685C61B2F1CF
:10092000406F4ED04B680468A3614AE0CC6A0B6B01
:100930001C434B6B1C434B6A1C434B6954EA834476
:100940000B691C430B6A1C43CB691C438B691C431A
:10095000144303685C6134E0CB69002B1BD0CC6A84
:100960000B6B1C434B6B1C434B6A1C434B6954EA97
:1009700083440B6A1C43CB681C43CB691C438B69C3
:100980001C43144303685C61B2F1406F19D04B689B
:100990000468A36115E04B6A002B12D0CC6A0B6B84
:1009A0001C434B6B1C434B6A1C434B6954EA834406
:1009B0000B6A1C43CB691C438B691C4314430368BB
:1009C0005C6110BC7047704701480068704700BF09
:1009D000AC000020704730B4002513E050F8042B21
:1009E000D30744BFA9F101039A18091F042942F84B
:1009F000045BFAD213468C0744BF15809B1CC907C1
:100A000048BF1D7050F8041B0029E7D130BC704767
:100A100070B50400A56DFFF7D7FF060094F8350008
:100A2000022806D080206065002084F83400012070
:100A30003BE02068006830F01600216808602068FC
:100A4000406930F0800021684861206C002802D1A4
:100A5000A06C002805D02068006830F008002168EC
:100A6000086020680068400840002168086020682D
:100A70000068C0070ED5FFF7A7FF801B0628F6D336
:100A800020206065002084F83400032084F83500BD
:100A900003200AE03F21E06D8140A960002084F836
:100AA0003400012084F83500002070BD2DE9FC41A0
:100AB00004000026002C01D10120D8E12078C007D5
:100AC0006DD5DFF89405016811F00C01042909D0F7
:100AD000006810F00C0008280ED1DFF880050068CF
:100AE000400209D5DFF86C050068800357D56068BF
:100AF000002854D10120BAE16068B0F5803F06D1EA
:100B0000DFF85005016851F48031016026E060682B
:100B100000280AD1DFF83C05016831F4803101601A
:100B2000016831F48021016018E06068B0F5A02F01
:100B30000AD1DFF82005016851F4802101600168C5
:100B400051F48031016009E0DFF80805016831F4F3
:100B500080310160016831F4802101606068002803
:100B60000ED0FFF731FF0500DFF8E80400688003CE
:100B700015D4FFF729FF401B6528F5D3032076E144
:100B8000FFF722FF0500DFF8CC040068800306D5DC
:100B9000FFF71AFF401B6528F5D3032067E1207893
:100BA000800752D5DFF8B004016811F00C0F09D0AE
:100BB000006810F00C00082816D1DFF8A0040068C7
:100BC000400211D4DFF88C040168890704D5E1687C
:100BD000012901D001204AE1016831F0F8012269C0
:100BE00051EAC201016030E0E06800281AD0DFF865
:100BF0006474386850F001003860FFF7E5FE0500C6
:100C00003868800706D4FFF7DFFE401B0328F7D3C0
:100C100003202CE1386830F0F800216950EAC10067
:100C2000386012E0DFF82C74386840084000386003
:100C3000FFF7CAFE05003868800706D5FFF7C4FE37
:100C4000401B0328F7D3032011E12078000728D5A3
:100C50006069002812D0DFF80874386850F001008D
:100C60003860FFF7B1FE05003868800719D4FFF738
:100C7000ABFE401B0328F7D30320F8E0DFF8E07356
:100C80003868400840003860FFF79EFE050038686D
:100C9000800706D5FFF798FE401B0328F7D30320F3
:100CA000E5E02078400740F18780DFF8C0733868BE
:100CB000C0000AD4386850F080503860386810F0AE
:100CC00080500090009801200600DFF8A483D8F837
:100CD0000000C00513D4D8F8000050F48070C8F8A4
:100CE0000000FFF771FE0500D8F80000C00506D42B
:100CF000FFF76AFE401B6528F6D30320B7E0A06823
:100D0000012806D1DFF86C03016851F00101016090
:100D100025E0A06800280AD1DFF8580301684908D7
:100D200049000160016831F00401016017E0A0682A
:100D300005280AD1DFF83C03016851F00401016085
:100D4000016851F00101016009E0DFF82803016842
:100D5000490849000160016831F004010160A068A0
:100D6000002810D0FFF730FE0500DFF80803006808
:100D7000800719D4FFF728FE401B41F289318842D1
:100D8000F3D3032073E0FFF71FFE0500DFF8E40252
:100D90000068800708D5FFF717FE401B41F2893134
:100DA0008842F3D3032062E03000C0B2012803D1AF
:100DB000386830F080503860A069002856D0DFF8DD
:100DC0009802006810F00C0008284DD0A069022895
:100DD00037D1DFF88072386830F080703860FFF704
:100DE000F3FD80463868800107D5FFF7EDFDB0EBD5
:100DF00008000328F6D3032039E0E169206A0143A3
:100E0000606A51EA8011A06A4008401E51EA004120
:100E1000E06A51EA006151F00051DFF840020160E0
:100E2000386850F080703860FFF7CEFD05003868F4
:100E300080011BD4FFF7C8FD401B0328F7D3032014
:100E400015E0DFF81072386830F080703860FFF716
:100E5000BBFD05003868800108D5FFF7B5FD401BD4
:100E60000328F7D3032002E0012000E00020BDE8C2
:100E7000F6812DE9F04104000D000026002C01D17F
:100E800001209FE0DFF8F071386810F00F00A842F1
:100E90000BD238680009000128433860386810F028
:100EA0000F00A84201D001208CE02078800719D5DE
:100EB0002078400705D5DFF8A001016851F4E05122
:100EC00001602078000705D5DFF88C01016851F436
:100ED00060410160DFF880110A6832F0F002A0681A
:100EE00002430A602078C00737D56068012806D120
:100EF000DFF860010068800311D4012062E06068BF
:100F0000022806D1DFF84C010068800107D40120D7
:100F100058E050480068800701D4012052E0DFF813
:100F20003881D8F800108908890060680143C8F842
:100F30000010FFF749FD0600D8F8000010F00C0083
:100F40006168B0EB810F08D0FFF73EFD801B41F2D6
:100F500089318842F0D3032034E0386810F00F0064
:100F600085420BD238680009000128433860386890
:100F700010F00F00A84201D0012023E020784007A4
:100F800006D535490A6832F4E052E06802430A6047
:100F90002078000707D53048016831F460412269A4
:100FA00051EAC201016000F00FF834492A4A126880
:100FB000C2F30312895CC8402B4908600F2000F07F
:100FC00061F80020BDE8F0812DE9F0410024002502
:100FD000002600272048006810F00C00002804D0EC
:100FE000042804D0082804D031E01E4830E024480A
:100FF0002EE0DFF86880D8F8000010F03F00040011
:10100000D8F8000040020CD5D8F80000C0F38810D2
:101010001B49A1FB00012200002300F059F8050044
:101020000BE0D8F80000C0F388100E49A1FB0001C6
:101030002200002300F04CF80500D8F80000C0F3AF
:101040000140401C40000600B5FBF6F000E00548FA
:10105000BDE8F08100380240083802400438024000
:10106000743802400024F40004000020403802409C
:101070000070004070380240003C0240E41E00084E
:1010800040787D0110B504004FF47A700D4909785D
:10109000B0FBF1F00C490968B1FBF0F000F0B0F9D9
:1010A000002801D001200CE0102C09D200222100E0
:1010B0005FF0FF3000F08FF904480460002000E08A
:1010C000012010BD080000200400002000000020C6
:1010D000BBBBE1B1B2F5803F80F07E80022A1ED911
:1010E0008C46B1FBF2F102FB11C31B0443EA10432F
:1010F000B3FBF2FC02FB1C3380B240EA0343B3FBB8
:10110000F2F002FB103240EA0C4000237047022A42
:1011100005D98446B0FBF2F002FB10C270474AB119
:1011200005D100F0010249085FEA30007047002253
:101130000023704700F078B90B0002000021002066
:101140007047904271EB030CF6D3B3F5803F2FD27A
:10115000F0B5B3FA83F7B1FA81F4A7F10F0E3D1B96
:101160005340CEF1200602FA0EF2F3415340B5F19E
:101170000F0746D80F3C2C444140C4F12006A04044
:10118000F1414140B1FBF3F603FB1611A2FB06450A
:10119000001BA94102D2761E8018594180EA010243
:1011A00021FA0EF362FA0EF200215A403046F0BDE9
:1011B00030B4B1FBF3FC03FB1C11A2FB0C45001B7C
:1011C000A94103D2ACF1010C8018594130BC024650
:1011D0000B46604600217047B2F1807F65D3F0B5C1
:1011E000B2FA82F7B1FA81F4C7F10F063D1B22FA79
:1011F00006F307F1110EF24120355A40B5F10F0701
:10120000B8D94140C4F12006A040F1414140B1FBB2
:10121000F3FC03FB1C11A2FB0C45001BA94103D2EC
:10122000BCF1010C801859410F2F12D30F3FC90395
:1012300041EA5041B1FBF3F603FB1611A2FB064550
:10124000D4EBC030A94102D2761E8018594146EA3B
:10125000CC3C07B34140C7F12006B840F1414140C2
:10126000B1FBF3F603FB1611A2FB0645001BA941D7
:1012700002D2761E8018594180EA010221FA0EF34B
:10128000C7F1200462FA0EF20CFA07F05A402CFA69
:1012900004F13043F0BD80EA010221FA0EF300218F
:1012A00062FA0EF260465A40F0BD8C46B1FBF2F194
:1012B00002FB11C31B0243EA1063B3FBF2FC02FB07
:1012C0001C331B024CEA002043EA1063B3FBF2FC20
:1012D00002FB1C331B024CEA002043EA1063B3FB01
:1012E000F2FC02FB1C331B024CEA002043EA1063B1
:1012F000B3FBF2FC02FB1C324CEA002000237047D7
:1013000010B410F00703DFF8044122684FF6FF0124
:101310000A40DFF8FC1051EA03210A43226010BCA6
:101320007047DFF8E8000068C0F30220704710B48F
:10133000020052B2002A05D40A01364B040064B2FE
:101340001A5508E00A01344B040064B214F00F048B
:10135000234403F8042C10BC704770B4030013F04E
:101360000704D4F10700052801D3042001E0D4F1DB
:101370000700251D072D01D2002500E0E51E0126EE
:1013800016FA00F0401E0140A94016FA05F56D1E40
:101390002A401143080070BC704710B50400601E5D
:1013A000B0F1807F01D301200EE0601E1B49086070
:1013B0000F215FF0FF30FFF7BAFF002018490860E7
:1013C000072018490860002010BD10B50400200057
:1013D000FFF796FF10BD2DE9F04104000D00160047
:1013E0000027FFF79EFF8046320029004046FFF7A6
:1013F000B4FF0100200040B2FFF799FFBDE8F08183
:1014000010B504002000FFF7C8FF10BD0CED00E090
:101410000000FA0500E400E018ED00E014E000E050
:1014200018E000E010E000E07047000010B5CC4C80
:10143000CC4820602000FEF731FF002801D00120B9
:1014400055E000F095F9C8480021C1610021016212
:1014500000214162002141610021C162002101633C
:10146000002141634FF40051C160C0480021016177
:101470000121C160102181605FF480014161012080
:1014800060600420A0601020E0608020B0FA80F04E
:10149000401E20614FF4A06060610020A061002028
:1014A000E061002020622000FEF78EFE002801D0BF
:1014B00001201CE0200000F01BF8002801D00120D2
:1014C00015E0200000F0ACF8002801D001200EE06B
:1014D000200000F04DF8002801D0012007E0200096
:1014E00000F028F8002801D0012000E0002010BD05
:1014F00070B504009C4D4FF48070A8616620286090
:101500000020686241F28836320029002000FEF790
:10151000E7FE002801D001200BE09920286032006E
:1015200029002000FEF7DCFE002801D0012000E0A9
:10153000002070BD1CB504008B494FF440708861D9
:10154000EB2008604FF44060C8615FF04070486273
:101550000A20486100200190002000906A46200087
:10156000FFF768F8002801D0012000E0002016BD38
:1015700030B58FB004004FF4807007908520019043
:1015800000200890002009905FF080700A900020F1
:10159000069001200B9000200C9000200D90002060
:1015A0000E9041F288352A0001A92000FEF798FE2E
:1015B000002801D0012031E02A0069462000FEF712
:1015C00058FF002801D0012028E0200000F09EF8FC
:1015D000002801D0012021E0812001909DF8001019
:1015E00011F00F010A225FF07060B0FA80F08240C3
:1015F00011438DF800102A0001A92000FEF770FEAB
:10160000002801D0012009E02A0069462000FEF7E9
:10161000BDFE002801D0012000E000200FB030BD49
:10162000F0B595B004004FF4807007900020099049
:101630000020069000200C9000200D9000200E90BD
:1016400010201190002013905FF48000149065200A
:101650000190002008905FF080750A9501200B90A2
:101660003F4E41F288373A0001A93000FEF738FEBC
:10167000002801D0012047E03A0069463000FEF71B
:10168000F8FE002801D001203EE006200190002055
:101690000A903A0001A93000FEF722FE002801D08E
:1016A000012031E002200F900220109001201290C2
:1016B000052001900A953B000FAA01A93000FEF712
:1016C00053FF002801D001201EE06120019001207D
:1016D0000B909DF8000010F03F0050F040008DF896
:1016E00000003A0001A93000FEF7FAFD002801D001
:1016F000012009E03A0069463000FEF747FE002865
:1017000001D0012000E0002015B0F0BD70B504004C
:10171000154D4FF44070A8610620286000206862D3
:1017200041F28836320029002000FEF7D9FD00285A
:1017300001D0012013E00D4A022010600220506009
:10174000052028605FF040706862330029002000A7
:10175000FEF70AFF002801D0012000E0002070BD44
:101760000C000020001000A0580000209000002075
:1017700010B586B03648016851F00201016000687A
:1017800010F00200059005983248016851F00201FE
:101790000160016831F0020101602F48016851F0D9
:1017A00002010160016811F00201059105990168CB
:1017B00051F008010160016811F0080105910599D7
:1017C000016851F010010160006810F010000590F0
:1017D0000598402000900A200490022001900120EA
:1017E0000290022003901D4C6946200000F03CF856
:1017F00004200090092004900020029069462000F7
:1018000000F032F84FF40060009009200490144C6E
:101810006946200000F028F84FF48050009009201D
:1018200004906946200000F01FF804200090092071
:10183000049069460B4800F017F84FF400500090F0
:10184000092004906946200000F00EF806B010BD93
:101850003838024018380240303802400004024054
:10186000000C0240001002402DE9F8410022002344
:10187000002400260025102D80F00B81012717FA87
:1018800005F213000A681A4014009C4240F0FF80E1
:101890004A68022A02D04A68122A1FD12A00D208B6
:1018A00000EB8202D2F820C05FF00F0E15F00702A5
:1018B000D2B292001EFA02FE3CEA0E0CD1F810E001
:1018C00015F00702D2B292001EFA02FE5EEA0C0C7C
:1018D00066462A00D20800EB82021662D0F800C0E9
:1018E0005FF0030E2A00D2B252001EFA02F23CEA66
:1018F000020C91F8048018F003082A00D2B25200BA
:1019000018FA02F858EA0C0CC0F800C04A68012A1C
:1019100008D04A68022A05D04A68112A02D04A68CB
:10192000122A1BD186682A00D2B252001EFA02F295
:101930009643D1F80C802A00D2B2520018FA02F86D
:1019400058EA060686604268AF40BA434F68C7F35C
:101950000017AF403A439446C0F804C0C6682A0056
:10196000D2B252001EFA02FE36EA0E068F682A0034
:10197000D2B2520097403E43C6604A68D20040F15E
:101980008680DFF81421176857F4804717601268C3
:1019900012F480420092009ADFF800C12A009208F7
:1019A0005CF822705FF00F0E15F00302D2B29200C5
:1019B0001EFA02FE37EA0E07DFF8E420904201D15A
:1019C000002631E0DFF8DC20904201D101262BE037
:1019D000DFF8D420904201D1022625E0DFF8CC20A8
:1019E000904201D103261FE0DFF8C420904201D1CC
:1019F000042619E02F4A904201D1052614E02E4A10
:101A0000904201D106260FE02C4A904201D10726D0
:101A10000AE02B4A904201D1082605E0294A90426B
:101A200001D1092600E00A26F6B215F00302D2B26F
:101A30009200964037432A0092084CF82270224EBA
:101A40003268A243D1F804C05FEACC3C00D52243FF
:101A500032601E4F3E68A643D1F804C05FEA8C3C5A
:101A600000D526433E601A4F3A68A243D1F804C01D
:101A70005FEACC2C00D522433A60164F3E68A6435D
:101A8000D1F804C05FEA8C2C00D526433E606D1C63
:101A9000F1E6BDE8F1810000443802400838014019
:101AA000000002400004024000080240000C024016
:101AB000001002400014024000180240001C0240C6
:101AC0000020024000240240003C0140043C014050
:101AD000083C01400C3C0140BFF34F8FBFF36F8FB8
:101AE000002049490860BFF34F8FBFF36F8F47480D
:101AF000016851F400310160BFF34F8FBFF36F8F66
:101B00007047BFF34F8FBFF36F8F4048016831F4C8
:101B10000031016000203C490860BFF34F8FBFF3E4
:101B20006F8F704710B4002039490860BFF34F8FA2
:101B300038480168C1F34E32C1F3C900030043F6CF
:101B4000E07010EA421050EA8370334C20601800B5
:101B5000431E0028F3D11000421E0028ECD1BFF331
:101B60004F8F2A48046854F480340460BFF34F8FC9
:101B7000BFF36F8F10BC704710B400202449086079
:101B8000BFF34F8F2148016831F480310160BFF30A
:101B90004F8F20480168C1F34E32C1F3C9000300E2
:101BA00043F6E07010EA421050EA83701B4C20604C
:101BB0001800431E0028F3D11000421E0028ECD16B
:101BC000BFF34F8FBFF36F8F10BC704780B500F02D
:101BD00072F800F07DF800F030F800F027F80028E7
:101BE00001D000F029F800F06CF800200C490860E2
:101BF0000C480D49096801605FF01041096881F3E4
:101C0000088800688047FEE750EF00E014ED00E030
:101C100084ED00E080ED00E060EF00E074EF00E0B4
:101C200010E000E0A80000200400009010B500249F
:101C3000FFF7FCFB204310BDFEE730B591B0002458
:101C4000012005905FF48030069002200B905FF435
:101C500080000C9019200D904FF4D8700E90022047
:101C60000F900820109005A8FEF720FF050028001F
:101C7000C0B2002800D0FEE700F03EF804002000CB
:101C8000C0B2002800D0FEE70F2000900220019093
:101C9000002002904FF4A05003904FF48050049025
:101CA00006216846FFF7E5F80100C9B2002900D017
:101CB000FEE711B030BD80B5FFF70EFFFFF732FF32
:101CC00001BD80B5FFF71DFFFFF756FF01BD000006
:101CD00080B50748016851F4807101600320FFF767
:101CE00074FB0F20FFF7CEF900F004F8002002BDCE
:101CF000003C0240704700007CB500241B4801688E
:101D000051F080510160006810F080500090009800
:101D1000154E306850F480303060FEF755FE0500F7
:101D2000104C2068C00308D4FEF74EFE401B40F262
:101D3000E9318842F4D3032013E0306850F40030D6
:101D40003060FEF741FE06002068800308D4FEF7ED
:101D50003BFE801B40F2E9318842F5D3032000E0CE
:101D6000002076BD04700040007000404038024002
:101D70000F48016851F4700101600E49086850F085
:101D80000100086000200C4A10600A680B480240FD
:101D90000A600B480B4A1060086830F48020086025
:101DA0000020094908605FF000600849086070473A
:101DB00088ED00E00038024008380240FFFFF6FEE0
:101DC00010300024043802400C38024008ED00E0D6
:101DD00030B450F8041B79B10268436802440830FB
:101DE000DC0744BFA9F10104E31852F8045B43F88F
:101DF000045B091FF9D1ECE730BC704710B5074907
:101E000079441831064C7C44163404E00A68081DF5
:101E1000114488470146A142F8D110BD2C000000B2
:101E20004C0000004EF68851CEF20001086840F4E4
:101E300070000860BFF34F8FBFF36F8F4FF00070DB
:101E4000E1EE100A704700008FEBFFFFA4000000D6
:101E50000C0000200000000079FFFFFF0C000000D4
:101E6000B0000000000000200000000000F00DF8AD
:101E7000002801D0FFF7C2FFAFF300800020AFF3CE
:101E80000080FFF7A3FE00F002F80120704700F089
:101E900001B800000746384600F002F8FBE70000F2
:101EA00080B5AFF30080024A11001820ABBEFBE7FB
:101EB0002600020003480168034A1278891801606D
:101EC000704700BFAC000020080000207047FEE70C
:101ED000FEE7FEE7FEE770477047704780B5FFF703
:101EE000E9FF01BD00000000000000000102030442
:101EF000060708090148804701480047711D00088E
:101F0000051F0008AFF30080FFF78CFFFFF7AEFF5F
:101F1000100000000024F40001000000FFF7FEBFE5
:101F2000FFF7FEBFFFF7FEBFFFF7FEBFFFF7FEBFE5
:101F3000FFF7FEBFFFF7FEBFFFF7FEBFFFF7FEBFD5
:101F4000FFF7FEBFFFF7FEBFFFF7FEBFFFF7FEBFC5
:101F5000FFF7FEBFFFF7FEBFFFF7FEBFFFF7FEBFB5
:101F6000FFF7FEBFFFF7FEBFFFF7FEBFFFF7FEBFA5
:101F7000FFF7FEBFFFF7FEBFFFF7FEBFFFF7FEBF95
:101F8000FFF7FEBFFFF7FEBFFFF7FEBFFFF7FEBF85
:101F9000FFF7FEBFFFF7FEBFFFF7FEBFFFF7FEBF75
:101FA000FFF7FEBFFFF7FEBFFFF7FEBFFFF7FEBF65
:101FB000FFF7FEBFFFF7FEBFFFF7FEBFFFF7FEBF55
:101FC000FFF7FEBFFFF7FEBFFFF7FEBFFFF7FEBF45
:101FD000FFF7FEBFFFF7FEBFFFF7FEBFFFF7FEBF35
:101FE000FFF7FEBFFFF7FEBFFFF7FEBFFFF7FEBF25
:101FF000FFF7FEBFFFF7FEBFFFF7FEBFFFF7FEBF15
:10200000FFF7FEBFFFF7FEBFFFF7FEBFFFF7FEBF04
:10201000FFF7FEBFFFF7FEBFFFF7FEBFFFF7FEBFF4
:10202000FFF7FEBFFFF7FEBFFFF7FEBFFFF7FEBFE4
:10203000FFF7FEBFFFF7FEBFFFF7FEBFFFF7FEBFD4
:10204000FFF7FEBFFFF7FEBFFFF7FEBFFFF7FEBFC4
:10205000FFF7FEBFFFF7FEBFFFF7FEBFFFF7FEBFB4
:10206000FFF7FEBFFFF7FEBFFFF7FEBFFFF7FEBFA4
:10207000FFF7FEBFFFF7FEBFFFF7FEBFFFF7FEBF94
:10208000FFF7FEBFFFF7FEBFFFF7FEBFFFF7FEBF84
:10209000FFF7FEBFFFF7FEBFFFF7FEBFFFF7FEBF74
:0420A000FFF7FEBF89
:0200000490006A
:1000000000000520D1090090E1250090E325009033
:10001000E5250090E7250090E9250090000000000C
:10002000000000000000000000000000617C009063
:10003000EB25009000000000017D0090657D0090A0
:10004000210A0090210A0090210A0090210A0090C4
:10005000210A0090210A0090210A0090210A0090B4
:10006000210A0090210A0090210A0090210A0090A4
:10007000210A0090210A0090210A0090210A009094
:10008000210A0090210A0090210A0090210A009084
:10009000210A0090210A0090210A0090210A009074
:1000A000ED250090F9250090FD2500900126009097
:1000B000210A0090210A0090210A0090210A009054
:1000C000210A0090210A0090210A0090210A009044
:1000D000210A0090210A0090210A0090210A009034
:1000E000210A0090210A0090210A0090210A009024
:1000F000210A0090210A0090210A0090210A009014
:10010000210A0090210A0090210A0090210A009003
:10011000210A0090210A009005260090210A0090F3
:10012000210A0090210A0090210A0090210A0090E3
:10013000210A009011260090210A0090210A0090C7
:10014000210A0090210A0090210A0090210A0090C3
:10015000210A0090210A0090210A0090210A0090B3
:10016000210A0090210A0090210A0090210A0090A3
:10017000210A0090210A0090210A0090210A009093
:10018000210A0090210A0090210A0090210A009083
:10019000210A0090210A0090210A0090210A009073
:1001A0001D260090210A009029260090210A009027
:1001B000210A0090210A0090210A0090210A009053
:0801C000210A0090210A0090C1
:1001D00010B5054C237833B9044B13B10448AFF381
:1001E00000800123237010BDD031002000000000EA
:1001F000A0A1029008B5034B1BB103490348AFF31C
:10020000008008BD00000000D4310020A0A10290B1
:10021000034613F8012B002AFBD1181A0138704746
:1002200001F0FF01102A2BDB10F0070F08D010F8A7
:10023000013B013A8B422DD010F0070F42B3F6D1AB
:10024000F0B441EA012141EA014122F007047FF0C4
:1002500000070023F0E80256083C85EA010586EA1B
:10026000010685FA47F5A3FA87F586FA47F6A5FA57
:1002700087F68EB9EED1F0BC01F0FF0102F0070263
:1002800032B110F8013B013A83EA010313B1F8D10E
:100290000020704701387047002D06BF35460338EF
:1002A000073815F0010F07D1013015F4807F02BF28
:1002B000013015F4C03F0130F0BC0138704700BF79
:1002C00081F0004102E000BF83F0004330B54FEA07
:1002D00041044FEA430594EA050F08BF90EA020F74
:1002E0001FBF54EA000C55EA020C7FEA645C7FEA07
:1002F000655C00F0E2804FEA5454D4EB5555B8BF2A
:100300006D420CDD2C4480EA020281EA030382EA9A
:10031000000083EA010180EA020281EA0303362D2C
:1003200088BF30BD11F0004F4FEA01314FF4801CFF
:100330004CEA113102D0404261EB410113F0004F11
:100340004FEA03334CEA133302D0524263EB4303C8
:1003500094EA050F00F0A780A4F10104D5F1200E66
:100360000DDB02FA0EFC22FA05F2801841F10001C1
:1003700003FA0EF2801843FA05F359410EE0A5F195
:1003800020050EF1200E012A03FA0EFC28BF4CF0C6
:10039000020C43FA05F3C01851EBE37101F000457C
:1003A00007D54FF0000EDCF1000C7EEB00006EEB89
:1003B0000101B1F5801F1BD3B1F5001F0CD3490813
:1003C0005FEA30004FEA3C0C04F101044FEA44526A
:1003D00012F5800F80F09A80BCF1004F08BF5FEAF1
:1003E000500C50F1000041EB045141EA050130BDD1
:1003F0005FEA4C0C404141EB0101013C28BFB1F5E3
:10040000801FE9D291F0000F04BF01460020B1FA2D
:1004100081F308BF2033A3F10B03B3F120020CDA00
:100420000C3208DD02F1140CC2F10C0201FA0CF0DE
:1004300021FA02F10CE002F11402D8BFC2F1200C43
:1004400001FA02F120FA0CFCDCBF41EA0C019040F9
:10045000E41AA2BF01EB0451294330BD6FEA040442
:100460001F3C1CDA0C340EDC04F11404C4F120022D
:1004700020FA04F001FA02F340EA030021FA04F33F
:1004800045EA030130BDC4F10C04C4F1200220FA96
:1004900002F001FA04F340EA0300294630BD21FAD4
:1004A00004F0294630BD94F0000F83F4801306BF9A
:1004B00081F480110134013D4EE77FEA645C18BF8E
:1004C0007FEA655C29D094EA050F08BF90EA020F25
:1004D00005D054EA000C04BF1946104630BD91EA1D
:1004E000030F1EBF0021002030BD5FEA545C05D120
:1004F0004000494128BF41F0004130BD14F580045F
:100500003CBF01F5801130BD01F0004545F0FE41D2
:1005100041F470014FF0000030BD7FEA645C1ABF07
:10052000194610467FEA655C1CBF0B46024650EA3E
:10053000013406BF52EA033591EA030F41F400216A
:1005400030BD00BF90F0000F04BF0021704730B5F0
:100550004FF4806404F132044FF000054FF00001C5
:1005600050E700BF90F0000F04BF0021704730B586
:100570004FF4806404F1320410F0004548BF40425B
:100580004FF000013EE700BF42004FEAE2014FEAB0
:1005900031014FEA02701FBF12F07F4393F07F4F8B
:1005A00081F06051704732F07F4208BF704793F08E
:1005B0007F4F04BF41F40021704730B54FF46074A1
:1005C00001F0004521F000411CE700BF50EA0102A4
:1005D00008BF704730B54FF000050AE050EA01024D
:1005E00008BF704730B511F0004502D5404261EBBD
:1005F00041014FF4806404F132045FEA915C3FF4FE
:10060000D8AE4FF003025FEADC0C18BF03325FEA9A
:10061000DC0C18BF033202EBDC02C2F1200300FA4B
:1006200003FC20FA02F001FA03FE40EA0E0021FA70
:1006300002F11444BDE600BF4FEA4102B2F1E043CB
:1006400024BFB3F5001CDCF1FE5C0DD901F0004CB9
:100650004FEAC0024CEA5070B2F1004F40EB830009
:1006600008BF20F00100704711F0804F21D113F135
:100670003872BCBF01F00040704741F480114FEA6E
:100680005252C2F11802C2F1200C10FA0CF320FAF7
:1006900002F018BF40F001004FEAC1234FEAD32314
:1006A00003FA0CFC40EA0C0023FA02F34FEA43037E
:1006B000CCE77FEA625307D150EA01331EBF4FF007
:1006C000FE4040F44000704701F0004040F0FE4022
:1006D00040F40000704700BF53B94AB9002908BF71
:1006E00000281CBF4FF0FF314FF0FF3000F06EB913
:1006F000ADF1080C6DE904CE00F006F8DDF804E079
:10070000DDE9022304B070472DE9F047089D044657
:100710008C46002B40F083808A42174647D9B2FAB4
:1007200082F242B1C2F1200024FA00F091409740D9
:1007300040EA010C94404FEA1748230CBCFBF8F642
:100740001FFA87FE08FB16C143EA014306FB0EF1C0
:10075000994209D9FB1806F1FF3080F019819942BE
:1007600040F21681023E3B445B1AA4B2B3FBF8F0A0
:1007700008FB103344EA034400FB0EFEA64509D9EA
:100780003C1900F1FF3380F00581A64540F202815B
:1007900002383C4440EA0640A4EB0E0400261DB19A
:1007A000D4400023C5E900433146BDE8F08702B9D3
:1007B000FFDEB2FA82F2002A50D1CB1B4FEA174E6D
:1007C0001FFA87F80126B3FBFEFC210C0EFB1C333D
:1007D00041EA034108FB0CF38B4207D979180CF16D
:1007E000FF3002D28B4200F2E9808446C91AA3B2DC
:1007F000B1FBFEF00EFB101143EA014408FB00F8C8
:10080000A04507D93C1900F1FF3302D2A04500F200
:10081000D9801846A4EB080440EA0C40BFE78B429D
:1008200009D9002D00F0B1800026C5E9000130464D
:100830003146BDE8F087B3FA83F6002E4AD18B42E9
:1008400002D3824200F2B880841A61EB03010120D6
:100850008C46002DA8D0C5E9004CA5E7C2F12003C5
:1008600020FA03F6974001FA02F04FEA174ED940FA
:100870003043030CB1FBFEF61FFA87F80EFB16118E
:1008800043EA014306FB08F1994204FA02F409D94C
:10089000FB1806F1FF3C80F08D80994240F28A807F
:1008A000023E3B445B1A81B2B3FBFEF00EFB1033F9
:1008B00041EA034100FB08F38B4207D9791800F1A4
:1008C000FF3C73D28B4271D902383944CB1A40EACB
:1008D000064678E7C6F1200C03FA06F422FA0CF378
:1008E0001C4320FA0CF701FA06F34FEA144E21FAE2
:1008F0000CF11F433B0CB1FBFEF91FFA84F80EFB11
:10090000191143EA014109FB08FA8A4502FA06F285
:1009100000FA06F308D9611809F1FF3048D28A4578
:1009200046D9A9F102092144A1EB0A01BFB2B1FBEA
:10093000FEF00EFB101147EA014700FB08F8B8452E
:1009400007D9E71900F1FF312ED2B8452CD902386A
:10095000274440EA0940A7EB0807A0FB02894F455E
:10096000C64649461AD317D05DB1B3EB0E0267EB0A
:10097000010707FA0CFCF2404CEA0202F740C5E915
:10098000002700263146BDE8F0872E4628460BE7B3
:100990000646E9E61846FDE64345E5D2B8EB020E09
:1009A00069EB04010138DFE70846D2E760468DE7CE
:1009B0008146B9E7664675E730464AE7ACF1020C76
:1009C000394413E702383C4424E700BF704700BFB6
:1009D000DFF834D0002103E00C4B5B584350043166
:1009E0000B480C4B42189A42F6D30B4A02E0002304
:1009F00042F8043B094B9A42F9D303F087FB28F0F5
:100A00005DF901F0C9F97047000005204816039010
:100A10000000002030010020D031002098CB0220BF
:100A2000FEE70000002130B5084685B012F0E0FD79
:100A3000214D0020214B2249224A18600860106095
:100A4000214C0295214DCDE9000520460DF0EAFC30
:100A500020460DF07FFD94F8313020465D0728D503
:100A60000DF07EFD1A4918480DF0F2FD012100221B
:100A7000184D084606F086FD174B2022002118600D
:100A8000164BC5E90040184628F082F91449021FA8
:100A9000102340F8041C4FF480611248C2E905138A
:100AA000294606F05DFC084805B0BDE830400BF073
:100AB00031BB0DF06FFDD5E75D350190E46F02208D
:100AC000DC6F0220E06F0220A46F0220810D0090F5
:100AD000290F0090786F0220EC310020846F0220F3
:100AE00000A20290DD0E00902DE9F74F244A4FF04E
:100AF00000080C4640F2F45BD66A47469146B3685C
:100B00002CB939461E4803F0F3FE204604E0326853
:100B1000002A11DA6FF00700D9F8003041F2140210
:100B20009958890605D52021995041F204020021E7
:100B3000995003B0BDE8F08F628945464FF0000A36
:100B400005EB020861685819D845514408D8CDE929
:100B5000002328F0F5F8009A24681744019BCFE79A
:100B6000ABEB05052A4628F0EBF8F6683368002B56
:100B7000D0DBAA442F44B368A8F2F4520025DFE783
:100B8000E86F02202DE9F74F80463A4C4FF0FF31D5
:100B9000206806F04DFD0028F8D1374E37480EF09A
:100BA00046FF304603F016FF054630B100243348B7
:100BB0000EF042FF002CF0D1E7E7B18F01BB00241B
:100BC000336B0022B06B82424DD1002341F21402FC
:100BD000B36333689958090605D58021995041F2CD
:100BE000080200219950002CE0D0D8F8103041467E
:100BF000204698470028DAD020460DF00BFED6E7B5
:100C00004FF4C172376C0DF06DFE04460028D6D04B
:100C1000B946D6F830A0074640F2F45BB7F80AE0D0
:100C2000AC4600230CEB0E05786809EB0C015D4522
:100C3000184406D8724628F083F83F68002FEDD19B
:100C4000BEE7ABEB0C020193009228F079F8DAF8DA
:100C50000CA0A5F2F45E4FF0000CDAF80890DDE984
:100C600000231344DEE71968013241F000411960A6
:100C7000DB68A8E7F0310020E86F022084CB022077
:100C8000F0B58DB004461422002107A828F080F8A2
:100C90002268344B9A4262D1A3F590430024022784
:100CA00003261A6B0B2507A92F4842F000721A631E
:100CB0001A6B02F000720192019A1A6B42F0806284
:100CC0001A631A6B02F080620292029A1A6B42F067
:100CD00000621A631A6B02F000620392039A1A6BA5
:100CE00042F040021A631A6B02F040020492049A26
:100CF0001A6B42F004021A631A6B02F004020592A6
:100D0000059A1A6B42F001021A631B6B03F0010390
:100D10000693069B4FF4D043CDE90737CDE909464A
:100D20000B9504F049F9322307A910480B95CDE93A
:100D30000737CDE9094604F03FF9862307A90C4897
:100D40000B95CDE90737CDE9094604F035F93D208B
:100D50002246052103F056FA3D2003F085FA0DB036
:100D6000F0BD00BF008002400018024000080240B1
:100D700000000240014B186806F094BCF0310020DE
:100D800030B504468DB030B9454B40F2522245494A
:100D9000454828F09DFB47F27343444D444A4FF4C5
:100DA000804163862846434B6361434BA361002324
:100DB000C5E900234FF4006200932B82EB614FF4EE
:100DC0000003C5E90212022201A92B62019201224D
:100DD000ADF80820C5E9051203F0EEFE28B994F835
:100DE000313043F0040384F831300423334A34496A
:100DF0002E4803F007FD0423324A33492B4803F001
:100E00003DFD0623012184F830306B6908461A78CD
:100E100084F82A205A7884F82B209A7884F82C2099
:100E2000DA7884F82D201A7984F82E2000225B7954
:100E300084F82F3040F2DC53238594F8313043F0AE
:100E40000A0384F8313006F09DFB204B202200215C
:100E5000186004A827F09CFF1D4B4FF4AF72214689
:100E6000039330231B48CDE9082303AA06F078FA40
:100E70000E4803F09BFF6A461D210C4803F029FE33
:100E8000009A1D21094842F00B02009203F05CFE1B
:100E90006A461D21054803F01CFE00200DB030BD40
:100EA00008A202907DBB029054A20290E86F02203B
:100EB00000800240F9CC0090E90A0090001A00205E
:100EC00080190020B001002030010020F031002006
:100ED0007CA20290850B009003F06AB937B500231D
:100EE00004460F4D019301AA0121284603F0F1FDAC
:100EF0002068019B90F8312003F00403510701930F
:100F000008D42BB10DF062FBC82006F085FAEAE7A1
:100F10005207F9D5002BF7D10DF080FBF4E700BFA5
:100F2000E86F02207047000073B590F8313000215F
:100F3000054658070091019144D5244C6368002B65
:100F400035D026464FF48052204603F0FDFD03F0D5
:100F50002FF9009001AA0121304603F0BAFD03F0F9
:100F600027F9009BC01AB0F57A7F20D8019B9A061A
:100F7000F0D501AA1F21154803F0ABFD019B13F02A
:100F8000100218BF4FF400625B074CBF00234FF400
:100F90008043E260A36000210C4803F081FF0B480E
:100FA00003F004FF2846FFF7BDFF02B070BDD4E98F
:100FB000022300210548520842EAD30292B203F00C
:100FC000C3FDE8E7014803F02EFFEBE7E86F0220DE
:100FD00000F034BC00F0A2BC40687047416070472C
:100FE000094A136843F080731360A2F54E42074B21
:100FF00052F84C1C4C3A0B431360A2F57B62136809
:1010000043F0010313607047FCED00E055CEACC522
:10101000511A01EB5301B1FBF3F07047014B186813
:10102000704700BF041000E0704710B504460C2163
:1010300027F024F8204610BD036810B51B6904464C
:1010400031B19847A26863689B1A1844606010BD6C
:101050009847A060FBE7704730B58DB00D46144649
:1010600000212C2201A827F093FE01A802F08EFF98
:101070009DF8040030B1BDF8063001202B60BDF8AA
:10108000103023600DB030BD10B50446042126F0A9
:10109000F5FF204610BD000008B54FF488714FF4ED
:1010A000F07002F01DFF28B1034B1D21034A0448D4
:1010B00027F0C0FD08BD00BFACA20290CDA20290F7
:1010C000F7A202907047704770477047012380F87D
:1010D000741080F87530704700207047002070470A
:1010E000836B0BB10846184770474FF6FF70704787
:1010F000406803689B6918477047000008B503689B
:1011000004469B6E9847236820461B6E984700F064
:1011100029F9236820469B6D98474FF48051074872
:1011200004F0D7F80821064804F0D3F800F01AF9C3
:10113000236820469B6D9847F8E700BF00200240D7
:101140000028024010B5044614F036FC23682046FF
:10115000D3F89030BDE81040184700F099BC00F07B
:101160009DBC000070B500F0A3FC104A0023C2F83B
:101170008430BFF34F8FD2F8803043F6E074C3F36E
:10118000C900C3F34E335B0103EA0406014646EA95
:1011900081750139C2F87452F9D2203B13F1200F46
:1011A000F2D1BFF34F8FBFF36F8F70BD00ED00E042
:1011B00000F04ABC00F086BC00F08EBC00F04EBCD3
:1011C00008B531B90A4B40F26B210A4A0A4827F0A8
:1011D00031FDC0E90F12003A0849436418BF0122EB
:1011E000003B0A7018BF0123054A137008BD00BFF9
:1011F0006CA30290A4A30290F2A30290DA6C0220E6
:10120000DB6C022013F061BE10B504467C2126F091
:1012100035FF204610BD90F877301BB14068036859
:101220001B6818471846704790F83410114B30B5BA
:1012300090F874401A788C420DD05AB90E4A0F4972
:1012400014880F480C8001880E4D118001222980DE
:1012500004801A7030BD002AFCD00948074A018872
:10126000084D1180044A1488118000222C800480CB
:10127000EFE700BFD46C0220D06C0220D66C0220B5
:10128000D26C0220D86C022038B50446FFF71AFF52
:10129000074D204600F034FC0023284684F84A30ED
:1012A000FFF79EFE0123256184F86C3038BD00BF36
:1012B000F4310020034B00225A609A60024A1A60FF
:1012C000704700BFF43100208CA20290012100225F
:1012D00008B5084606F056F90A4B186028B90A4BBB
:1012E00025210A4A0A4827F0A5FC002204210120F2
:1012F00006F048FA074B186018B9074B2921034A32
:10130000F0E708BD04320020F4A402903DA502904D
:101310006CA5029000320020C8A50290024B4FF04D
:10132000FF31186806F084B904320020014B1868B8
:1013300006F0B8B904320020024B0021186806F00C
:1013400077B900BF04320020FFF7F0BF0023034845
:1013500003491A46006806F05BBA00BF003200205D
:101360000400002013B50023074C01A91A46206889
:1013700006F090FA4FF0FF33002201A9206806F032
:1013800089FA02B010BD00BF0032002003685B6C18
:1013900018470120704703689B6A18470D4B82B0BD
:1013A0001A6B42F400021A631A6B02F400020192F3
:1013B000019A1A6942F400021A611A6922F40002C1
:1013C0001A61054B054A1A614FF08062044B9A601E
:1013D00002B0704700380240E8710220ED1300901F
:1013E00000E100E040F2EF1070470000024B1B6884
:1013F000586803685B691847DC6C022008B50B2845
:101400000BD8DFE800F01206100A0A0A0A080808DA
:101410000808012008BD0520FCE7054B6521054AA9
:10142000054827F007FC0020F4E70220F2E700BFA0
:101430000AA6029025A6029071A6029008B50A2875
:1014400009D8DFE800F010060E08080808060606AE
:101450000600012008BD054B8621054A054827F0F6
:10146000E9FB0020F6E70220F4E700BF0AA602909D
:10147000CBA6029071A602902DE9F0414F7F0C4659
:101480003846FFF7BBFF94F81E8005464046FFF73D
:10149000B5FF06464046FFF7D1FF218AE28A544B4A
:1014A000521A9E461A649A61A28A521A1A61628A74
:1014B000586342EA0142E0685A646268D863DA60BD
:1014C000D4F800C0227FBCF1800F4FEA026232D014
:1014D00029D8BCF1200F45EA020175D0BCF1400FBC
:1014E00072D0BCF1040F3CD02A43414B0B2F42F485
:1014F0000032DA6179D1A268111D5288D962501E7A
:10150000D96921F47F4222F0100242EA002242F01F
:101510001002DA61DA6942F02002DA61DA699206D1
:101520005FD500BFFAE7BCF5807FDDD142F4003221
:1015300042F0090203E042F4003242F00A02DA61AA
:10154000A1690A024C0102F47802C90004F47C4447
:10155000C9B222430A431A625E625861254A1A6080
:101560003DE041F400310B2FD9615E62586129D111
:10157000A16821480A1DDA620A783AB1012A16D018
:101580001E4BFC211E4A1F4827F054FBDA6949888C
:101590000240013942EA0122DA61154BDA6942F070
:1015A0002002DA61DA6991060AD500BFFAE7DA6942
:1015B00049880240013942EA012242F01002EBE779
:1015C00010229A600A4BC9E741F40031094BCEF86A
:1015D0001C10CEF82460CEF81400CEF80030BDE820
:1015E000F08110229A60084AB9E740F20122B6E77A
:1015F00000B0024001020200EF00FFFF18A70290B6
:1016000032A7029071A6029001020100F8B58E7F08
:101610000C463046FFF712FF278A618AE28A1E4B8A
:1016200041EA0741E568D21B58635964DD631A64D7
:101630002168082918D19A611A615862174A217FD6
:1016400042EA0162DA61A1690A02480102F4780201
:10165000C90000F47C40C9B202430A431A62104A2E
:101660005D61DD601A60F8BD0022D8611A61A16970
:101670001EB99963084B0B4AF4E70A02480102F4C9
:101680007802C90000F47C40C9B202430A43217FBA
:1016900042EA01629A63EDE700B0024009000100EE
:1016A0000102020001020300054B4FF0806203605B
:1016B000044BC3F88820BFF34F8FBFF36F8F704781
:1016C0007CA7029000E100E010B50446FFF7ECFFB4
:1016D0004FF44261204626F0D1FC204610BD0000A8
:1016E00070B504460A4B0C30002625466022606027
:1016F0002672667245F8203B294614F0C1FA04F5BB
:101700004263AE612035AB42FBD1204670BD00BFC5
:101710007CA70290012070470C2070470C2303FB2C
:101720000100083070470C2303FB010008307047AC
:101730000120704740F29C50704740F29C5303FBDD
:1017400001000830704740F29C5303FB0100083051
:101750007047012070471020704700EB01100830DF
:10176000704700EB011008307047084601F08CB854
:10177000034B10B50446036012F000FC204610BD78
:1017800034A8029010B50446FFF7F2FF142120465A
:1017900026F074FC204610BD034B10B504460360D0
:1017A00012F0ECFB204610BD00A8029010B50446D4
:1017B000FFF7F2FF40F2A451204626F05FFC2046DE
:1017C00010BD0000034B10B50446036012F0D6FBB9
:1017D000204610BDCCA7029010B50446FFF7F2FFDB
:1017E0001821204626F04AFC204610BD084B10B5B3
:1017F0000446036000F5BA60FFF7BAFF04F12C005D
:10180000FFF7CAFF04F11400FFF7DCFF204610BD0C
:1018100068A8029008B50248FFF7E8FF08BD00BFBE
:101820000C32002010B50446FFF7E0FF4FF4E861EA
:10183000204626F023FC204610BD00002DE9F34190
:1018400000F064FF0024054600F064FF23460146D3
:101850002246284600941AF0D9FD254B254A2046F9
:10186000254D1A6001F094FE24481AF011FD2B78E2
:10187000BFF35B8FDB0735D4284626F001FC88B325
:101880001F4C204B04F5BD6604F1140004F12C0834
:1018900004F5BA6723606060C4F80880E7602661D9
:1018A00012F06EFB184B4046636112F069FB174B58
:1018B0003846E36212F064FB154B04F2E450C4F8BE
:1018C000D03501F0E1FE224604F2E451304601F049
:1018D000D1FE304600F0D8FF284626F0DDFB0D484B
:1018E00027F0C6F90C4802B0BDE8F041FFF7CCBCC8
:1018F000386D0220EC45002008320020080000204E
:101900000C32002068A80290CCA7029000A8029098
:1019100034A8029015180090704500200148FFF788
:10192000EDBB00BF7045002070B5254B254C264E01
:10193000264D23603046FFF7D3FE28461DF0F4FD08
:10194000234B4FF4807100222248A3F84810A3F8DB
:1019500076100121DC6083F878101F491F4C0B6062
:101960001F491A8583F82A20DA621A8683F84A20EA
:101970005A6583F86C201A6783F87520C3E9190249
:101980004FF4F07008804FF488712180154CC3E942
:101990000422C3E90622C3E90822C3E90E22C3E9EF
:1019A0001022C3E91322C3E9016522700E4C83F8AB
:1019B000342020800D4A0E481A60018070BD00BF9F
:1019C0005CA302904C39002050390020F0450020E3
:1019D0007045002001000001DC6C0220D26C022066
:1019E000D06C0220D46C0220D66C022040A402905D
:1019F000D86C02200148FFF757BE00BF50390020C5
:101A0000104A002370B5C2F88430BFF34F8FD2F86C
:101A1000803043F6E074C3F3C900C3F34E335B0177
:101A200003EA0406014646EA81750139C2F8745298
:101A3000F9D2203B13F1200FF2D1BFF34F8FBFF348
:101A40006F8F70BD00ED00E0034B902283F85A23A6
:101A500083F85823704700BF00E100E0094A0A49B3
:101A6000D3680A48C3F30A03013B9BB20B80116998
:101A7000C1F30A01013901801364536B43F0010380
:101A800053637047006801406A46002068460020A2
:101A9000014B986A704700BF84680140024B0122E5
:101AA000996243F8602C704784680140FFF7A8BF33
:101AB00008B513F010FABDE80840FFF7A1BF13F016
:101AC00030BB0000034B4FF080629A604FF0807291
:101AD0009A60704700E100E0084B4FF08062C3F865
:101AE0008820BFF34F8FBFF36F8F4FF08072C3F822
:101AF0008820BFF34F8FBFF36F8F704700E100E086
:101B000070B5044613F0D0FC2368DD6C17F04CFA76
:101B100001462046A84723682046044A1D6F4FF01F
:101B200040410023AC46BDE87040604700FC03C064
:101B3000134B144A1B6C11888B4210B5124C13D1F5
:101B4000124B198804F070F8226892F8663001335D
:101B500082F86630FFF7FAFB206813F02DFF0020B3
:101B6000BDE81040FFF7AFBA04F05EF80020FFF7C1
:101B7000ABFA20680368BDE810409B69184700BFB6
:101B8000006801406A460020DC6C022068460020A4
:101B9000704700002DE9F04100228CB0054601217C
:101BA00002200DF063FE041E35DB022328888DF829
:101BB000113009F0A7FA10220023ADF812002046D8
:101BC0000DEB020105930DF0B7FC002823DB134F4A
:101BD0000A21DFF8508020463E1D0DF01BFD08ADA8
:101BE00003AA204629460DF001FC00280FDB039BC9
:101BF00038607B6195E80F0086E80F001823074ADC
:101C00004146074800934FF480630DF018FF012010
:101C100005F002FCE3E70CB0BDE8F081D0710220D2
:101C200074A80290291C00902DE9F0434369AFB0DD
:101C30000568043004AC174F03930DF10C09164EE0
:101C4000DFF858800FC884E80F003B6833609622A5
:101C5000002308A92846CDE900490DF0FFFC021E2B
:101C600013DD3B6808A928463360039BCDE9004398
:101C700000230DF04FFD414608A827F0F5FC20B9E0
:101C80003B6832689B1A142BE1D928460DF08AFC78
:101C900005F0BCFB6C4600207046002086A8029030
:101CA00007B55023064A07491360102306480093DE
:101CB0004FF480630DF0C3FE03B05DF804FB00BF7A
:101CC0005C720220951B009089A8029030B5B5B0D7
:101CD00010220021012509A8022427F059F8142216
:101CE000002102A827F054F88422002113A827F02D
:101CF0004FF8274B4FF0190C07A81A6C42F080528E
:101D00001A641B6C03F080530093009B214B1A68EC
:101D100042F440421A601B6803F440430193019B64
:101D20004FF48033CDE907534FF48003CDE90D43E1
:101D30004FF4D873CDE91144CDE90FC303F0CAFFC6
:101D400000B1FEE703F08EFF00B1FEE70F23049021
:101D50004FF4A0500721CDE902344FF48053CDE970
:101D6000050302A804F0A2F900B1FEE748231B9086
:101D700024901393642318930523CDE91D5013A8D1
:101D8000CDE9194304F076FA00B1FEE735B030BD75
:101D9000003802400070004000B59DB0BFF34F8F87
:101DA000BFF36F8FB14B0021C3F85012BFF34F8FB9
:101DB000BFF36F8F5A6942F400325A61BFF34F8FFD
:101DC000BFF36F8FC3F88410BFF34F8FD3F8802019
:101DD00043F6E074C2F3C900C2F34E32520102EA84
:101DE0000406014646EA81750139C3F86052F9D20A
:101DF000203A12F1200FF2D1BFF34F8F5A6942F40B
:101E000080325A61BFF34F8FBFF36F8F02F0AEF98C
:101E10000024FFF75BFF142200210FA826F0B8FF73
:101E2000934B082193481A6B012542F010021A6364
:101E30001A6B02F010020192019A1A6B42F04002F2
:101E40001A631A6B02F040020292029A1A6B42F075
:101E500002021A631A6B02F002020392039A1A6BCF
:101E600042F400721A631A6B02F400720492049A2C
:101E70001A6B42F008021A631A6B02F0080205920C
:101E8000059A1A6B42F480621A631A6B02F480623C
:101E90000692069A1A6B42F020021A631A6B02F03D
:101EA00020020792079A1A6B42F480721A631A6B27
:101EB00002F480720892089A1A6B42F001021A63C7
:101EC0001A6B02F001020992099A1A6B42F0800221
:101ED0001A631A6B02F080020A920A9A1A6B42F095
:101EE00004021A6300221B6B03F004030B930B9B89
:101EF00003F0EAF900224FF480515F4803F0E4F95F
:101F000008230FA95B48CDE90F35CDE9114403F053
:101F100053F84FF4805358480FA9CDE90F35CDE958
:101F2000114403F049F85548554B8480036005621D
:101F3000C0E9054402F0BAF900B1FEE7514C524B3A
:101F4000C4E90200C4E90030C4E90A00C4E90C0095
:101F5000204602F0C7FA00B1FEE72946204602F00B
:101F600079FB034600B1FEE748480421484A402473
:101F70008360C0E900231022C0E90312802115927A
:101F8000C0E905410FA9C0E90733C0E90933CDE92C
:101F90000F22CDE91122CDE9132204F0F3FB00B1A9
:101FA000FEE701F083FF01F035FF054600B1FEE7D3
:101FB000342201460FA8374C26F0EAFE364B28267D
:101FC0004FF0350C40F2152E40F235222046A58602
:101FD000256184F83650C4E900350923C4E9056356
:101FE0000B23C4E907C340F21B13C4E909E340F221
:101FF0001D13C4E90255C4E90B2303F01DFD00B114
:10200000FEE74FF4887302214FF4F0724FF48065BD
:102010000F90ADF86C008DF86E001A93CDE9123177
:10202000FF21CDE914100521CDE91020CDE91802DA
:10203000CDE9165102460FA9204603F0C8FD03461C
:1020400000B1FEE715484FF4E132154C03614362DD
:10205000C0E900420C22C0E90233C0E90523C0E90F
:10206000073305F060F8E8B1FEE700BF00ED00E0DF
:102070000038024000280240002002403070022058
:1020800000300240E871022000B0024028720220B5
:10209000400100A05470022000680140007102203D
:1020A00000100140102200210FA81F4C26F070FEE6
:1020B000D7221E49002320460E93A360C4E90012D4
:1020C0004FF6FF72CDE90C33C4E90323C4E90533AD
:1020D00004F008FD00B1FEE74FF480530FA920463D
:1020E0000F9304F039FD00B1FEE7CDE90C000E902E
:1020F0000CA9204604F0C4FD054600B1FEE7FEF73A
:1021000067FF204604F096FB05F0DCF8084A2946F4
:10211000084805F025F9084B1860FEF783FCFFF727
:10212000BFFD05F0E9F8FEE78471022000000140E0
:102130009CA80290D50F0090FC7002200268034B0F
:102140009A4201D102F028B8704700BF0010004049
:102150000D4B82B00F216FF001001A6C42F08052DB
:102160001A641A6C02F080520092009A5A6C42F47F
:1021700080425A6400225B6C03F480430193019B0C
:1021800002B002F03FB800BF00380240026882B0DF
:10219000084B9A420BD1D3F8302803F5006342F480
:1021A00080521A631B6B03F480530193019B02B0AE
:1021B000704700BF003002400E4B07B502689A42DC
:1021C00015D1A3F5F04305215A201A6B42F4000201
:1021D0001A6300221B6B03F400030193019B02F0BE
:1021E00011F85A2003B05DF804EB02F03DB803B0DB
:1021F0005DF804FB00B0024070B58CB004461422B8
:10220000002107A826F0C4FD22683F4B9A4278D1EE
:1022100003F55043022400250E265A6C07A93B48BB
:1022200042F080625A645A6C02F080620192019A14
:102230001A6B42F010021A631A6B02F0100202923B
:10224000029A1A6B42F400721A631A6B02F400725B
:102250000392039A1A6B42F480621A631A6B02F4B7
:1022600080620492049A1A6B42F040021A631A6B5D
:1022700002F040020592059A1A6B42F480721A63CA
:102280001B6B03F480730693069B1023CDE9073480
:10229000CDE909540B9602F08FFE4EF6FF7307A9A5
:1022A0001B480B96CDE90734CDE9095402F084FEB2
:1022B000F72307A917480B96CDE90734CDE9095450
:1022C00002F07AFE4FF4805307A91348CDE9073492
:1022D0000923CDE909540B9302F06EFE4FF44643F7
:1022E00007A90E480B96CDE90734CDE9095402F051
:1022F00063FE58202A46052101F084FF582001F092
:10230000B3FF0CB070BD00BF006801400010024078
:102310000024024000280240001802400020024031
:102320001A4B07B502689A422DD103F59C3305215B
:1023300018205A6C42F001025A6400225B6C03F0D0
:1023400001030193019B01F05DFF182001F08CFF58
:1023500000220521192001F055FF192001F084FF0A
:10236000002205211A2001F04DFF1A2001F07CFF08
:10237000002205211B2001F045FF1B2003B05DF862
:1023800004EB01F071BF03B05DF804FB00000140F5
:10239000F0B589B004461422002103A826F0F8FC09
:1023A00022681D4B9A4235D103F59433022700264B
:1023B00003255A6C072403A9184842F010025A64F6
:1023C0005A6C02F010020092009A1A6B42F002025C
:1023D0001A631A6B02F002020192019A1A6B42F020
:1023E00001021A631B6B079403F001030293029B23
:1023F0008023CDE90565CDE9033702F0DDFD4FF41B
:10240000007303A906480794CDE90337CDE90565B4
:1024100002F0D2FD09B0F0BD0010014000040240FE
:10242000000002402B4BF0B51C6887B0002C4FD148
:102430000122022703260C251A6001A9264B2748F2
:102440009A6B42F001029A639B6B039403F00103C1
:102450000093009B4FF68373CDE90465CDE9013706
:1024600002F0AAFD48F2331301A91D480595CDE9F4
:102470000137CDE9034602F09FFD4CF2037301A939
:1024800018480595CDE90137CDE9034602F094FDE2
:102490004FF63F0301A914480595CDE90137CDE971
:1024A000034602F089FD242301A910480595CDE9D2
:1024B0000137CDE9034602F07FFD04230C480DEB04
:1024C00003010595CDE90137CDE9034602F074FD1E
:1024D00007B0F0BD784600200038024000100240EE
:1024E00000180240000C024000140240001C024090
:1024F0000008024008B5144B1A6822BB01224FF6AF
:10250000837112481A60124A936B23F0010393639C
:1025100002F038FE48F233110E4802F033FE4CF25E
:1025200003710D4802F02EFE4FF63F010B4802F0FA
:1025300029FE24210A4802F025FE04210948BDE8AD
:10254000084002F01FBE08BD744600200010024083
:102550000038024000180240000C02400014024003
:10256000001C02400008024010B5014688B000225D
:10257000362001F047FE362001F076FE144B01A90B
:1025800003A81A6C134C42F010021A641B6C03F07F
:1025900010030293029B03F04FFE03F02DFE0E4B3F
:1025A0004000236040F2E733E3600C4BB0FBF3F0F4
:1025B00001380023606020462361A36004F092FA92
:1025C00020B9204604F036F908B010BD0120FBE721
:1025D00000380240607202200010004040420F00AC
:1025E0007047FEE7FEE7FEE7FEE77047014804F0AC
:1025F00063B900BF84710220FFF7F8BFFFF7F6BF91
:10260000FFF7F4BF014804F057B900BF6072022021
:10261000014802F026BA00BFE86F0220014803F02B
:1026200079BA00BF54700220014801F089BF00BF91
:10263000E871022001207047024B16224FF0FF3054
:102640001A60704760CB0220014B16221A60FEE729
:1026500060CB022070B50E4614460025A54201DB72
:10266000204670BDAFF3008070550135F6E770B5B8
:102670000E4614460025A54201DB204670BD705D64
:102680000135AFF30080F6E74FF0FF3070474FF4AD
:10269000005300204B6070470120704700207047B6
:1026A000094B0246196809B9084919601868694652
:1026B00002448A4283BF064B0C224FF0FF301A605F
:1026C00088BF1A60704700BF7C46002098CB02206C
:1026D00060CB0220704710B50446042125F0CEFCE3
:1026E000204610BD012908B506D0022908D059B9E5
:1026F00000F09AFF006808BD00F096FF4068FAE716
:1027000000F092FF8068F6E70020F4E70048704789
:10271000D4A802900620704713B5002451B1036875
:1027200001AA01948DF803409C680DF10303A047B2
:1027300002B010BD0846FBE74089704780897047AA
:102740008088704783798088184480B27047C07948
:1027500000F07F007047C079C0097047704710B51E
:102760000446082125F08AFC204610BD704700F57C
:1027700096730868496803C37047704770474160A3
:10278000704770470123037270477047704710B459
:1027900041680346C2689B68541001EB6200D2078F
:1027A00048BF0A595DF8044B48BFD35818474368DF
:1027B0002BB183682BB9C06800F001007047184640
:1027C00070470120704710B504460C2125F056FCD7
:1027D000204610BD10B50446102125F04FFC2046C0
:1027E00010BD10B504464FF4AC7125F047FC2046EF
:1027F00010BD10B516F0D8FB0368BDE810401B6B88
:10280000184710B50446D0F83C0158B10368DB689E
:10281000984738B1D4F83C0103689B689847002377
:10282000C4F83C3110BD0000F8B5044617460E460A
:1028300016F024FC104B00251C6029460F4BC4E900
:1028400054760F4E236030680E4BC4E95255C4E9EC
:1028500050350368C4E94E559B689847284600F0F8
:1028600097FE336893F876200AB1D86C00B998685F
:102870001EF0BDFA2046F8BD286D02209CAC0290E7
:10288000DC6C022084AC0290064BC0F84401C0F816
:1028900048310023C0F84C3100F5A073C0F83C313A
:1028A000704700BFE92900902DE9F84F074690686E
:1028B0009946884603681446DDF828A01B6A9847A5
:1028C00040F29B53984205D8414BA721414A4248C8
:1028D00026F0B0F9606803681B6A98470F2803D890
:1028E0003E4BA8213B4AF2E7E06803681B6A984721
:1028F0000B2803D83A4BA921364AE8E716F054FBD7
:1029000016F0A0FBD9F8000010B10368DB68984707
:10291000D9F8000010B103681B689847386810B1F7
:1029200003685B699847D8F8000010B103685B68DA
:102930009847386810B103681B689847D8F80000BA
:1029400010B103689B689847E06800214FF0000BC6
:1029500003685B6A9847234B0546C0F804B00360E0
:10296000594680F808B0A06803685B6A9847064635
:1029700000F0FAFE6068594603685B6A98470446AF
:10298000314600F093FEC9F80050C8F800403E60A0
:10299000E4B1231DCAF8003030463368C4F808A0FB
:1029A000DB68F4639847236820461B6898472946EC
:1029B000304617F086FF2B6828461B6998472B681E
:1029C00028465B6998472046BDE8F88F2346E1E733
:1029D0005CA90290EAA90290EEAA029035AB02909F
:1029E000D8AB0290E0AC0290D0F8543107B500F5B6
:1029F0009C710093044BD0F850210448FFF754FF1A
:102A000003B05DF804FB00BF1C6D0220186D0220AE
:102A1000006A704770478B888069DB0A0A6850F843
:102A200023001044704710B5C2B1137BB3B1547B7F
:102A3000D27A240204F4E0641443C26998B202EB2F
:102A4000840213888B4202D192F9020010BD05D88E
:102A50000138043280B20028F3D1F7E70020F5E70F
:102A600010B50446242125F009FB204610BD0000C6
:102A700030B589B00446BDF850500695BDF84C50AD
:102A800005959DF8405004959DF83C5003959DF8A0
:102A9000385002959DF8345001959DF830500095BE
:102AA00017F0E8FA054B20462360119BA361129BA7
:102AB000E361159B236209B030BD00BF04AD0290F5
:102AC0000020704781807047C18070470181704746
:102AD000418170477047704770477047704710B426
:102AE000C4880368121B84881B6D091B12B25DF831
:102AF000044B09B218474FF6FF7383814FF0FF3341
:102B000003621368C3611060704770477047704775
:102B10007047704790F825201AB190F8242002B130
:102B2000186070477047704730B444680346C26805
:102B30009B68551004EB6200D20748BF625930BC55
:102B400048BFD358184743682BB183682BB9C06876
:102B500000F001007047184670470120704710B51B
:102B60000446102125F08AFA204610BD00F578733E
:102B7000994206D1012380F84D3400F5856017F0A5
:102B8000B9B900F59B63994201D10023F3E770477F
:102B9000064A02600022C0E90122C0E90322C0E91E
:102BA0000522C2614FF4807282847047F4FA029069
:102BB000036870B50446DB6A1546984723682046CB
:102BC00029461B6BBDE87040184770B504461D468A
:102BD000BDF91060FFF7ECFF2368294620465B6BC8
:102BE00098472368314620469B6BBDE870401847E4
:102BF00010B504462622002126F0CAF82046FFF729
:102C0000C7FF044B20462360FF2384F826300023AF
:102C1000A36210BDE0F5029010B504462622002103
:102C200026F0B6F82046FFF7B3FF074B4FF47F02BC
:102C300020462360054BA3624FF6FF73A385002354
:102C4000C4E90C32238710BD38F5029054A90290D4
:102C500073B54FF6FF73018F0646994233D01C4B74
:102C60001B682BB91B4BB1211B4A1C4825F0E2FF06
:102C70001B4A12888A4203D81A4BB221164AF4E73B
:102C800013F81120184B1B6853F82250174B186883
:102C900000F0BAFC2B68014601909B6A28469847D1
:102CA0002B68044601991B6C2846984714FB00F4D6
:102CB0002B682846E4B201995B6A9847044486F879
:102CC000454002B070BD002380F84530F9E700BFF1
:102CD0002C6D022050AD029092AD0290C0AD0290DA
:102CE000306D022007AE0290346D0220386D022054
:102CF00013460C4A70B515682DB90B4B35210B4A9C
:102D00000B4825F097FF95F876200AB1EC6C04B9D2
:102D1000AC682268956A0A4601462046AC46BDE882
:102D200070406047DC6C022059AE02909CAE02906D
:102D3000F8AE02902DE9F04F04460025DFF8FCA321
:102D400004F16C0604F5B27904F5C87B04F5DE776E
:102D500004F513782DED0E8B89B09FEDE49A17F0F2
:102D600035FCE34B2246E563DFEDE28A42F8403B67
:102D7000104609EE902AFFF73BFF30469FEDDE8AB2
:102D800011F030FD4846FFF703FF5846C4F864A130
:102D9000C4F88C51FFF72CFF4FF6FF7206A9384696
:102DA000ADF8182012F0FEFF4046FFF7F1FE04F5E3
:102DB0001E73C4F84CA21846C4F874520DEE103AB3
:102DC000FFF716FF04F5297318460DEE903AFFF74A
:102DD0000FFF04F53673C94A1846C4F8D052C4F838
:102DE000A4220EEE103AA4F8D452FFF701FFC34A12
:102DF00004F54373C4F80453C4F8D8221846A4F861
:102E000008530BEE103AFFF707FF04F5527318460C
:102E10000BEE903AFFF700FFB94A04F56273C4F86D
:102E20008453C4F8482318460CEE103AFFF7B0FE5E
:102E300004F56D73C4F888A304F5856A1846C4F8D0
:102E4000B0530EEE903AFFF7D3FE04F578731846B0
:102E50000AEE103A14F052FC504611F017F904F53E
:102E60009B6318460AEE903A14F048FC04F5A463FC
:102E700018460CEE903AFFF7CFFEA24B2A462946A1
:102E8000C4F8843519EE900A9F4BC4F88845C4F8FD
:102E90008C354FF48873C4F8905500934FF4F07359
:102EA000FFF793FE2A4629462846FFF721FF2A46C8
:102EB0002946A0663046FFF77BFE4FF0030306AAC3
:102EC00005A9ADF814304FF002033046ADF81830C4
:102ED00011F07FFDFF22D921304611F0CFFB3221C6
:102EE000304611F040FB3221304611F0C5FB874BD4
:102EF0004FF4887258462946C4F86C3100924FF45A
:102F0000F0732A46FFF761FEE0222921CB20FFF76C
:102F1000EFFE5946C4F8B801484611F0EFF94FF0FA
:102F2000050B2A4638462946FFF742FE06A93846D1
:102F3000ADF818B013F0D6F8744B3846C4F8C43165
:102F4000734BC4F8E831734BC4F8EC3112F074FFE2
:102F5000B7EE000A384613F0CEF8384684ED859A6D
:102F600012F06AFF3846C4ED808A84ED818A84EDD0
:102F7000829A12F061FF3846C4ED838A84ED848A18
:102F800012F05AFF9FED641ADFED640A3846B0EE86
:102F9000410A13F085F93946484684F8E55111F0A5
:102FA000ADF9494630464FF0320911F0C3FC574B9A
:102FB0002A462946C4F854324FF488731DEE100A8D
:102FC00004F25C5700934FF4F073FFF7FEFDE0222C
:102FD0002921CB20FFF78CFE1DEE101AC4F8A002A9
:102FE000404611F08BF937233A228F211DEE900ACB
:102FF0000093C323FFF7E9FD7D2259465D20FFF7CB
:1030000077FEBD221A21C4F8CC02A920FFF770FE7A
:1030100089231DEE901AC4F8D00284F8CA324046C3
:10302000A4F8D4B211F06AF9F523932276211EEEAA
:10303000100ACDF80090FFF7C8FD85220A21AB20C9
:10304000FFF756FE1522C4F8000394201146FFF73F
:103050004FFE90231EEE101AC4F8040384F8FE32CB
:103060004046A4F808B311F049F94922B1211BEEFA
:10307000100AFFF79DFDFF2211461046FFF738FEAC
:10308000274B06A9C4F83C03A4F840531BEE100AD2
:103090000693ADF81C5013F06EFD1BEE101A40465F
:1030A00011F02CF927239E2276211BEE900A009323
:1030B000F523FFF78AFDFF2211461046FFF718FEA1
:1030C000184BC4F878031B68A4F87C532BB9164B33
:1030D000B121164A164825F0ADFD164B1B88022B70
:1030E0002ED8154BB221114AF4E700BF00007A44F4
:1030F00060AF02900000704300000843A0F7029008
:10310000F8F6029048AF02906D2B0090E00110019C
:1031100000000C430000F041000000003333B643D0
:1031200054A902902C6D022050AD029092AD0290F5
:10313000C0AD0290306D022007AE029060E90290AF
:10314000754B0221186800F05FFA744A0346142197
:10315000384619F08FF8724BC4F88473012706A91A
:103160001BEE900A0693ADF81C7013F004FD1BEEE5
:10317000901A404611F0C2F84146304604F2845895
:1031800011F0D8FB674A4FF4F0732946C4F8902336
:103190004FF488721EEE900A00922A46FFF715FD42
:1031A000E0222921CB20FFF7A3FD1EEE901AC4F8E0
:1031B000DC031CEE100A11F0A1F81AEE100A9E2290
:1031C0009B21FFF7F5FC06AA05A91AEE100AADF837
:1031D0001450ADF8187013F0E4FE04231AEE100A30
:1031E000A4F81834FFF734FDFF2211461046FFF70C
:1031F0007FFDFF22C4F81C0411461046FFF778FD3E
:103200001AEE101AC4F820041CEE100AC4F8088440
:1032100011F074F81CEE101A304611F08BFB2946A1
:10322000304611F037FB042306A95046ADF818309C
:1032300068226FF0670310F0DBFEFF221146104694
:10324000FFF756FD0146504610F0BFFE2946504696
:1032500010F0BFFE504610F0AEFE49461AEE900A3E
:1032600040F20F12FFF7A4FC05A906AA1AEE900A75
:10327000ADF81450ADF8187013F093FE4FF0030240
:103280001AEE900AA4F81025FFF7E2FCFF2211467F
:103290001046FFF72DFDFF22C4F814051146104615
:1032A000FFF726FD1AEE901AC4F818055046C4F828
:1032B000008510F087FE1CEE900AB1221D21FFF759
:1032C00077FCFF2211461046FFF712FD144B06A9AA
:1032D000C4F85005A4F854551CEE900A0693ADF8B6
:1032E0001CB013F048FC1CEE901A504610F06AFE19
:1032F000201D19EE901A039011F000F83146039842
:1033000010F0FCFF0398514610F0F8FF204609B07A
:10331000BDEC0E8BBDE8F08F386D02203BAF029004
:1033200054A90290E0011001044B10B5044640F886
:103330006C3B11F023F9204610BD00BF60AF029036
:1033400010B50446FFF7F0FF40F29451204624F0F8
:1033500095FE204610BD704730B5144D8BB02C78CB
:10336000BFF35B8F14F001041DD1284624F088FEC2
:10337000C8B13F2301220E4907930E4B0E48069316
:103380000E4B03940094CDE904430423CDE9084493
:10339000CDE901320A23FFF76BFB284624F07CFEBF
:1033A000074825F065FC04480BB030BD804600207E
:1033B000B81A109078140390844600208CAF0290C5
:1033C000573300907047000030B5154D8BB02C7806
:1033D000BFF35B8F14F001041ED1284624F050FE89
:1033E000D0B13F2358220F4907930F4B0F48069344
:1033F0000F4B05930123CDE9033302930423CDE959
:103400000844CDE900331423FFF732FB284624F0AB
:1034100043FE084825F02CFC04480BB030BD00BF2B
:10342000A8460020C81A10907C140390AC460020D7
:1034300090AF0290C53300907047000030B5144D36
:103440008BB02C78BFF35B8F14F001041DD128469C
:1034500024F016FEC8B13F2301220E4907930E4BFC
:103460000E4806930E4B03940094CDE904430423C5
:10347000CDE90844CDE901322823FFF7F9FA2846BF
:1034800024F00AFE074825F0F3FB04480BB030BDDA
:10349000D0460020981F10901C160390D4460020A0
:1034A00094AF029039340090002070470EB403B5F9
:1034B00003AB002153F8042B019316F011FC02B06A
:1034C0005DF804EB03B070470CB407B504AB53F8D8
:1034D000042B019316F004FC03B05DF804EB02B07A
:1034E00070470000C36B10B5044673B3038E2BB94D
:1034F000184BC021184A194825F09CFBC38D00EBDE
:1035000043035B8B0BB317F0ABFF238E012B03D868
:10351000134BC521134AEEE7E28D40F63F10531CD2
:103520009BB2092B194688BFA3F10A0104EB4101A4
:10353000498B814209D10A2B04EB420228BF0023A8
:10354000508B04EB4303588351832046BDE8104061
:1035500017F06ABE98AF0290A1AF02904CB00290F3
:1035600096B00290A4B0029017F018BE10B586B0C5
:1035700002AC84E806001A460AAB21460593019383
:10358000099B0093089B15F083F806B010BD00005E
:1035900038B518BB124B13481B681349B3B11A68EE
:1035A0009C681A441C4402605A681A440A600F4B13
:1035B00000221A8000F038F8054600F033F80C4B72
:1035C0001C600C4B1D600C4B188007E00B4B03601C
:1035D0000B4B0B600B4B1C68002CE8D138BD00BFB7
:1035E000F8460020FC460020004700200447002049
:1035F0002C6D0220346D0220306D0220C01F10900F
:10360000A81F109038201090044B1B6853F821001D
:10361000034B1B6803EB4000704700BF00470020CE
:10362000FC460020062070470048704708470020ED
:1036300010B5054CFFF7C8FE2060FFF7FFFE606085
:10364000FFF78AFEA06010BD08470020704710B544
:1036500004464FF4AC7124F011FD204610BD10B5A6
:103660000446D0F8540100F012F82046BDE810409E
:1036700015F072BB10B50446FFF7D6F8014B204693
:10368000236010BD80B10290002202607047704735
:10369000704704387047704710B50446102124F075
:1036A000EDFC204610BDA0F10400F5E70022C1604A
:1036B0008260044A10B502F10804203204604260BE
:1036C00010BD00BFBCB102907047FFF72BBA0000DD
:1036D000B0F89435052201339BB2B3FBF2F202EB52
:1036E000820230B5A0F894359B1A8BB004469BB289
:1036F000B3B900F5B3652868FCF746FF18A3D3E912
:103700000023FCF7E3FDFCF797FF94ED7E1A00EE33
:10371000900A286094ED7C0A04F5DE7012F0C0FD7A
:103720000D4B5A68AAB1130E0C4902A80193C2F3BB
:1037300007430093C2F30723D2B225F075FF13228B
:1037400002A904F25C5018F030FA04F5527016F039
:10375000D1FB0BB030BD00BFA46F0220E4B10290DA
:103760009A9999999999B93F10B50446FFF7E2FAE9
:10377000054B0022204623600023A4F8943504F56D
:10378000B3631A6010BD00BFF8B10290044B10B5CE
:10379000044640F86C3B10F0F1FE204610BD00BF1F
:1037A00060AF029010B50446FFF7F0FF40F29C5165
:1037B000204624F063FC204610BD7047002070476F
:1037C00037B500230F4C05468DF8073023781BB919
:1037D00000F0EEF9012323700324EDB2013CA8218F
:1037E000284600F0F9F914F0FF048DF807009DF861
:1037F0000730DBB203D19DF8070003B030BD512B79
:10380000ECD1F8E71647002013B500240221C0B21E
:103810008DF8074000F0E0F98DF807009DF80730BB
:1038200003F00F038DF807309DF80730052B01D901
:103830008DF807409DF80720034B9DF807005A704C
:1038400000229A7002B010BD164700202DE9F74FF4
:103850002F4D164600230F46AC786A788DF8073056
:10386000A2424DD9092C4ED804EB44035B00DBB2D5
:10387000191D03F1030B03F1060A0533C9B25FFA00
:103880008BFB5FFA8AFA5FFA83F8C4B2DFF88490A0
:10389000204600F0A1F98DF807009DF80730594641
:1038A0002046A9F8003000F097F98DF8070051463E
:1038B0009DF807302046B9F800201B0203F470631E
:1038C00013433B80A9F8003000F086F98DF807001B
:1038D00041469DF807302046A9F8003000F07CF9F9
:1038E0008DF807009DF80730B9F800201B0203F49B
:1038F00070631343A9F800303380AB780133AB70A9
:1039000003B0BDE8F08F98469A469B461946BCE73F
:1039100016470020144700200122A421C0B200F065
:1039200049B90022A421C0B200F044B9FFF7F9BFA1
:103930007047000010B5054CC82000F063F92378EB
:103940001BB900F035F90123237010BD1647002084
:10395000002313B50C46C0B201218DF8073000F0EA
:103960003BF98DF807009DF80730236002B010BDC9
:103970002DE9F3411D461D4B002416465B788DF85A
:1039800007408B422CD909292DD801EB41014C006D
:10399000E4B2E11CE71D0834C9B2FFB2E4B25FFA39
:1039A00080F8404600F018F98DF807009DF80730C0
:1039B0003946089A40469B09136000F00DF98DF8CE
:1039C00007009DF8073021464046336000F004F9B7
:1039D0008DF807009DF80720120902F004022A6002
:1039E00002B0BDE8F08127462146D8E716470020FF
:1039F00070B58AB0054601F095FF002855D14A4BB5
:103A000000264A4C9D426E610CBF494A494A9D427C
:103A10002A60494AC5E901264FF00102C5E9076657
:103A2000C5E90326236B42D143F0800380204FF089
